:020000040800F2
:10000000C0080020D5000008FD1F0008211F0008BF
:1000100000000000000000000000000000000000E0
:1000200000000000000000000000000003200008A5
:10003000000000000000000001200008552000081A
:10004000E700000800000000E7000008E7000008E3
:10005000E7000008E7000008E7000008E7000008E4
:1000600000000000E7000008E7000008E7000008C3
:10007000E7000008E7000008E700000800000000B3
:10008000E70000080000000000000000E700000892
:1000900000000000E7000008E7000008E700000893
:1000A00000000000E700000800000000E700000872
:1000B000E700000800000000000000000000000051
:1000C0000348854600F02AFA004800477D290008C9
:1000D000C00800200448804704480047FEE7FEE7C8
:1000E000FEE7FEE7FEE7FEE7C5200008C1000008C6
:1000F00070B50446002903D000202022012310E01F
:10010000002801D00020C043C046C0460DE025466F
:10011000D5408D4205D30D469540641B1D46954044
:1001200040191546521E002DF1DC214670BDF0B578
:100130001FB40646002082B005464024019100907D
:100140001BE0019922460F46304600F009FA049A56
:10015000059B801A994110D310461946224600F09B
:10016000EFF9361A8F410197224601200021009FA6
:1001700000F0E6F938184D4100902046641E002832
:10018000DFDC019B00982946324607B0F0BD000035
:10019000F0B507460846584087B0C00F04904800A5
:1001A0000E46590040084908BC1A884105D2384615
:1001B00031461E4617460B4602465800400810437B
:1001C0004CD0300D039040055900400D490D05906D
:1001D000401A0290402872DA18030121000B090529
:1001E0000843019004980092002805D001995242DA
:1001F0000020884100920190029840210A1A01993A
:10020000009800F09DF905460C466B4607CB00F0C0
:10021000B8F9C0197141039A0E0D0023D717564043
:100220001A467A40164344D0049A002A2DD0029AE6
:10023000012A039A15DC1205C01A914101263605E0
:10024000001C7141D20F059ED207009301920296C5
:100250002A46234600F0B5F907B0F0BD38463146CE
:10026000FAE71605224A0F46B218C01AB741012113
:100270000905001C4F4100187F41114618187941AB
:10028000E20F10436D19644113E0E2076D08154356
:100290006408C2071443039A01261205C01A91414B
:1002A0003605001C7141CE07400830434908C0188C
:1002B00051412A46234600F077F9CDE7FFE704983D
:1002C00001224000C117121A00238B4104983146C5
:1002D000C417381AA141EEE730B40124E4076340A3
:1002E00030BC55E730B40124E407614030BC4FE72F
:1002F0000000E0FFF0B51FB488B00B990998002406
:1003000048400999C00F490049080991C0070B9955
:100310000090490049080B9109990898A64608439E
:100320001CD00B990A98084318D009980124400062
:10033000420D4800410D099824050003000B20439D
:1003400009900B980003000B20430B9050181C4998
:100350004018002201901446104605E00020014696
:100360000DB0F0BD032801DA034600E003239C46EC
:10037000C11A0AAE0AE05F0008ADED5B4F00F75B03
:100380007D430027AA187C41491C5B1E6145F2DDB4
:10039000410004AB5A522104120C0A43240C401CA5
:1003A0000828DFDB019802900099704601910090C7
:1003B000059B049A0799069800F003F9D0E700001E
:1003C0000DFCFFFFF0B50C465C4085B0E40FE40780
:1003D00003944C00002664085900944649080246DC
:1003E0000296224321D062460A431ED06200570D76
:1003F0004A000E032303550D012402462C4924050F
:10040000781B1B0B360B4018234326436146009094
:100410001C46501AB44103D30098401C009002E0DF
:10042000921800985B41002803DA0020014605B0CD
:10043000F0BD0020012109050746864611E064460B
:100440001D46141BB54106D36546521BB341744685
:1004500007430C43A646CD07400849082843921895
:100460005B4105460D43EAD11046184313D0604660
:10047000194650407140084306D06046101AB341F7
:1004800006D20122002306E000220123DB0702E05E
:100490000122D2435310009874460105381C614173
:1004A000029C039D0019694100F07EF8BFE700003F
:1004B000FD0300004A0009030123090B1B05194332
:1004C0000A4B10B5520D9A4202DA0020014610BDC7
:1004D000064B34339A4203DC9A1A00F041F810BDFF
:1004E000034BD21800F02CF810BD0000FF030000F1
:1004F000CDFBFFFF10B5002904DB0124E4074042D7
:100500008C412146002B04DB1C460123DB075242B1
:10051000A341994200D1904210BD0000064C012534
:10052000064E05E0E36807CC2B430C3C984710349B
:10053000B442F7D3FFF7C8FD8C340008AC34000890
:1005400010B5202A04DB0146203A9140002010BD5E
:10055000914020239C1A0346E3401943904010BD6C
:1005600010B5202A04DB0846203AD040002110BDF7
:100570000B46D340D0402024A21A9140084319468C
:1005800010BD10B5202A06DBCB170846203A1041D3
:10059000C1170B4306E00B461341D0402024A21A9A
:1005A00091400843194610BD10B5002B08DA00240D
:1005B000401C614192185B411A4301D14008400040
:1005C00010BDF0B51FB482B005460C0003D008463C
:1005D00002F030FA02E002F02DFA203002460090DC
:1005E00021462846FFF7ACFF049B059A04460F46B8
:1005F00018431143084314D0184610431BD00098E9
:1006000040210A1A18460599FFF7AAFF05460E462B
:10061000009A05990498FFF793FF084305D001203D
:1006200004E02046394607B0F0BD0020C11705435D
:100630000E432C43374300990E986305401A790501
:10064000E40A00220C43FD0A0A3002D500200146CC
:10065000E9E70105101969410C9C0D9D00196941DC
:10066000FFF7A2FFDFE7000080B592B011A9029169
:10067000087003A8019000F011FA01980299C07E59
:10068000012210400978884237D0FFE700F044FB90
:1006900000282DD1FFE700F01BFB002823D1FFE746
:1006A0000420039001200006089011A80078411E44
:1006B00088410006099003A800F026FA002804D01B
:1006C000FFE7144802F0A6F9FFE700F0E3FA00287C
:1006D00004D0FFE7104802F09DF9FFE700F0E2FACE
:1006E00000F0C2FA03E00A4802F094F9FFE703E0E1
:1006F000064802F08FF9FFE703E0034802F08AF9A9
:10070000FFE712B080BDC0465B3400081434000817
:1007100034340008C7330008F033000872B6FFE72E
:10072000FEE7000084B003900291019279480068CE
:100730003F21084000900098400202990860029A08
:1007400011680120C306C918116071490968009138
:1007500000998906490C019A1160019A1168194B98
:10076000C9181160039A1168C00781431160009A8B
:100770000240039908681043086004B07047C046FF
:1007800083B0029001916F4800683F2108400090BB
:1007900000984002029A1060029A10680123DB065A
:1007A000C018106068480068084000900098400237
:1007B0000199086001990868024A8018086003B02E
:1007C0007047C046FF01000882B036480068C0B2DA
:1007D00000900098AA2807D0FFE70098CC2803D003
:1007E000FFE7BB20019002E000980190FFE701982D
:1007F00002B0704783B0029001915C48006800909D
:1008000000980121090408400299086000981F21FE
:1008100008400199086003B07047C04681B0214884
:100820000068B84908400090009801B07047C04681
:1008300083B0029001910092029801280DD1FFE748
:10084000584802680F210A40019B1A600068090499
:100850000840000C009908600CE0534802680F2122
:100860000A40019B1A60006809040840000C0099C6
:100870000860FFE703B0704784B0039002910192D3
:10088000084908680090039A00989043FF2290431B
:1008900000900098029A1043019A1043086004B037
:1008A0007047C0462020024086B005900491039214
:1008B00017480068009005A80078C007002816D0E7
:1008C000FFE704981F21C9064018400A02900398C8
:1008D0004018400A019002980E49086000983F2194
:1008E000884300900199009808430090FFE705A80D
:1008F000C0780006002806D5FFE700980121C90747
:1009000008430090FFE700980149086006B070476F
:10091000282002402420024084B0039002910398D2
:100920001F21C9064018400A019002984018400A49
:10093000009001980349086000980349086004B0DA
:100940007047C046342002403820024083B00290F5
:10095000019106490868064A104000900098029AE2
:100960001043019A1043086003B070478020024092
:10097000E0FFFEFF83B002900191009202980128EF
:1009800007D0FFE700980004019908430649086072
:1009900006E0009800040199084302490860FFE757
:1009A00003B070472C2002403020024080B584B054
:1009B000029000F05DFB029940180090FFE7244888
:1009C0000068012109040840000C00280BD0FFE753
:1009D00000F04EFB0099884204D3FFE703A90320EF
:1009E000087030E0EBE71A4908681A4A1040019095
:1009F000019808600198002807D0FFE701989849FE
:100A0000486003A9012008701DE000F031FB029945
:100A100040180090FFE70E48006801218904084053
:100A2000800C00280BD0FFE700F022FB00998842E1
:100A300004D3FFE703A90320087004E0EBE703A950
:100A400000200870FFE703A8007804B080BDC0460E
:100A500010200240FAC3000080B584B0039000F07B
:100A600007FB0290039801900198401C002806D0D3
:100A7000FFE709480178019840180190FFE7FFE778
:100A800000F0F6FA0299401A0199884201D2FFE774
:100A9000F6E704B080BDC0460800002080B582B0F3
:100AA0000190019907200860019A506811460831A9
:100AB0000C32FFF7BDFEFFF787FE01990861FFF7D3
:100AC000ADFE0199886101990E484861019A10466E
:100AD0001C30114620312432FFF724FE01990846CC
:100AE00028302C31FFF74CFE0199C86903221043CE
:100AF000C8610199084630303431FFF77BFE02B0FF
:100B000080BDC04600FFCF3F80B586B00490FFE7B0
:100B100053480078012804D1FFE705A90220087096
:100B200099E04F4901200870FFE7FFE74C4900209A
:100B3000486004980078C007002807D0FFE7049AAF
:100B400050689168D268FFF715FFFFE704980068C6
:100B500006210840062807D1FFE7049A50699169E9
:100B60001269FFF789FE22E00498007880070028C8
:100B70000AD5FFE7FFF752FE039003990498026934
:100B80000846FFF779FE11E0049800784007002836
:100B90000AD5FFE7FFF718FE0390049948698969B1
:100BA000039AFFF769FE00E0FFE7FFE7FFE704981D
:100BB0000078000700281AD5FFE70498C069294982
:100BC000084207D0FFE7049AD069116A526AFFF71A
:100BD0006BFEFFE70498007F8007002806D5FFE73B
:100BE0000499886AC96AFFF797FEFFE7FFE7049850
:100BF0000078C006002806D5FFE70499086B496B0A
:100C0000FFF7A4FEFFE77D20C000FFF7CFFE0146FF
:100C100002A801700078002814D1FFE74D49019126
:100C20000868012252040092104308607D20C00031
:100C3000FFF7BCFE009A019902AB18700868904358
:100C40000860FFE7FFE7064900200870FFE7029809
:100C500005A90870FFE705A8007806B080BDC0466A
:100C6000A40000200100008081B0684601220270CB
:100C700038480168D207114301600068C00F00289E
:100C800004D0FFE7694600200870FFE76846007857
:100C900001B070472F4A11680120C3061943116043
:100CA0007047C04681B06846012202702948016839
:100CB00092071143016000684000002804D5FFE757
:100CC000694600200870FFE76846007801B0704769
:100CD00081B06946012008701E4800684000002865
:100CE00010D5FFE709490A4808600A480860194812
:100CF00000684000002804D4FFE76946002008701F
:100D0000FFE7FFE76846007801B070470C2002401B
:100D10003B2A19087F6E5D4C81B06946002008703F
:100D20000C480068C00F002810D0FFE70A490B48A4
:100D300008600B48086007480068C00F002804D00E
:100D4000FFE7694601200870FFE7FFE76846007883
:100D500001B070471420024008200240230167457B
:100D6000AB89EFCD8AB00990089100200590FFE78C
:100D7000089800680599C840002800D150E10898FB
:100D80000068059A012191400840069006980028C5
:100D900000D141E108984068022805D0FFE7089893
:100DA0004068122822D1FFE709980599C9088900EF
:100DB0004018006A079005984007C10E0F200246B0
:100DC0008A4007999143079108990969014005985C
:100DD0004007C00E8140079808430790079809997B
:100DE000059AD208920089180862FFE709980068FE
:100DF000079005984100032002468A4007999143D5
:100E0000079108994968014005984000814007987A
:100E100008430790079809990860089840680128D6
:100E20000FD0FFE70898406802280AD0FFE708982B
:100E30004068112805D0FFE70898406812282CD197
:100E4000FFE70998806807900598400003218140DA
:100E50000798884307900898C1680598400081402A
:100E6000079808430790079809998860099840688F
:100E700007900598012181400798884307900898BA
:100E800040681021084001090598814007980843EF
:100E90000790079809994860FFE708984068032879
:100EA00016D0FFE70998C068079005984000032115
:100EB000814007988843079008988168059840000A
:100EC000814007980843079007980999C860FFE791
:100ED0000898C079C006002800D49CE0059803213A
:100EE000884350494058079005988007C00E0F214D
:100EF000814007988843079009980521090788428F
:100F000003D1FFE70020049022E009984649884277
:100F100003D1FFE70120039017E009984349884275
:100F200003D1FFE7022002900CE00999404A052016
:100F3000062300939142019001D0009801900198FE
:100F40000290FFE702980390FFE703980490FFE701
:100F5000049905988007C00E8140079808430790C0
:100F600007980599032291432E4A8850314800681A
:100F70000790069907988843079008988079C007DA
:100F8000002805D0FFE70699079808430790FFE778
:100F9000079828490860284800680790069907982C
:100FA00088430790089880798007002805D5FFE7D7
:100FB0000699079808430790FFE707981E490860BD
:100FC0001E4800680790069907988843079008987C
:100FD0008079C006002805D5FFE7069907980843E1
:100FE0000790FFE7079815490860154800680790C3
:100FF000069907988843079008988079800600280A
:1010000005D5FFE70699079808430790FFE707987B
:101010000B490860FFE7FFE70598401C0590A7E62D
:101020000AB07047601802400004005000080050E9
:10103000001400508018024084180240001802403A
:101040000418024083B0029001A801806846027033
:101050000078002805D0FFE701A800880299886180
:1010600004E001A8008802998862FFE703B0704796
:10107000054800687047C0462D4802780249086854
:10108000801808607047C046BC00002080B582B060
:1010900001A900200870032000F00EF8002804D0F9
:1010A000FFE701A90120087002E000F047F8FFE720
:1010B00001A8007802B080BD80B584B0039002A979
:1010C000002008701A480078002829D0FFE7194846
:1010D00000680190164801787D20C000FFF708F8ED
:1010E00001460198FFF704F800F0E4FC002812D153
:1010F000FFE70398032809D8FFE703990022D043AC
:1011000000F038F803980C49086003E002A90120B8
:101110000870FFE703E002A901200870FFE703E081
:1011200002A901200870FFE702A8007804B080BD82
:1011300008000020040000200C00002082B0FFE71F
:101140000B48026801210A430260006808400190D0
:101150000198FFE7FFE77A480268012109070A437F
:1011600002600068084000900098FFE702B07047F6
:101170004010024080B584B0034603A8037002917A
:10118000019200214056029901F0A4FB04B080BDF9
:1011900080B588B0079004A90020087003A90870E2
:1011A000079800784006002878D5FFE702A90020BC
:1011B000087063480068C000002810D4FFE7FFE70C
:1011C0005F480268012109070A430260006808407D
:1011D00001900198FFE702A901200870FFE7E748A6
:1011E000006803210902084006900698002817D0DD
:1011F000FFE7069807998969884211D0FFE7DF4920
:101200000868032212029043069008680122120423
:101210001043086008689043086006980860FFE77C
:1012200006A80078C007002818D0FFE7FFF720FFC6
:101230000590FFE7D1480068800700280DD4FFE73C
:10124000FFF716FF0599401ACF49884204D3FFE7FC
:1012500004A90320087000E0ECE7FFE704A8007889
:1012600000280AD1FFE7C54908680322120290430B
:10127000079A92691043086003E0049803A9087074
:10128000FFE702A80078012807D1FFE72C4908688A
:101290000122120790430860FFE7FFE707980078F4
:1012A000C007002809D0FFE72649086803229043B9
:1012B000079A926810430860FFE707980078800754
:1012C00000280AD5FFE71F4908680322120390434C
:1012D000079AD26810430860FFE7079800788006F5
:1012E00000280AD5FFE717490868032292079043B0
:1012F000079A526910430860FFE707980078400793
:1013000000280AD5FFE70F4908680322920390439B
:10131000079A126910430860FFE7079800780006F3
:10132000002809D5FFE7D5490868E0229043079ACD
:10133000526810430860FFE703A8007808B080BD3A
:101340003C1002405410024080B584B002900191DC
:101350000298002804D1FFE703A90120087006E1E4
:1013600001988549096807221140884221D9FFE781
:101370008149086807229043019A10430860FFF7EB
:1013800077FE0090FFE77C4800680721084001993C
:1013900088420DD0FFE7FFF76BFE0099401A7A49AB
:1013A000884204D3FFE703A903200870DFE0EAE7DF
:1013B000FFE702980078800700281AD5FFE7029817
:1013C0000078400700280AD5FFE7AD4908680B22DE
:1013D000120210430722120390430860FFE7A84956
:1013E00008680F2212029043029AD26810430860E4
:1013F000FFE702980078C007002869D0FFE79F49FF
:1014000008681C229043029A926810430860029870
:10141000406801280BD1FFE7984800688003002846
:1014200004D4FFE703A901200870A0E02CE0029893
:10143000406800280BD1FFE790480068400500286D
:1014400004D4FFE703A90120087090E01BE0029894
:10145000406803280BD1FFE749480068800700284F
:1014600004D4FFE703A90120087080E00AE04348A4
:1014700000688007002804D4FFE703A90120087052
:1014800075E0FFE7FFE7FFE77D4908680722904323
:10149000029A526810430860FFF7EAFD0090FFE7E8
:1014A000774800683821084002994968C900884295
:1014B0000DD0FFE7FFF7DCFD0099401A3249884262
:1014C00004D3FFE703A90320087050E0E8E7FFE733
:1014D00001982949096807221140884221D2FFE773
:1014E0002549086807229043019A10430860FFF7D6
:1014F000BFFD0090FFE720480068072108400199E0
:1015000088420DD0FFE7FFF7B3FD0099401A1E494E
:10151000884204D3FFE703A90320087027E0EAE725
:10152000FFE702980078400700280AD5FFE75449F2
:101530000868072212039043029A12691043086058
:10154000FFE700F04DF84E4909680F2212021140E2
:101550008A09184989581F221140C8401649086055
:1015600008480068FFF7A8FD03A90870FFE703A873
:10157000007804B080BDC046002002405C100240EC
:10158000601002400C0000208913000080B500F0BC
:1015900027F801463A4800680F22120210408209DB
:1015A000044880581F221040C14003480160006871
:1015B00080BDC0462C3300080400002080B5FFF732
:1015C000E5FF2F4909680722120311408A0A0349DF
:1015D00089581F221140C84080BDC0466C330008A6
:1015E00080B584B0254800681C2108408008401C54
:1015F0000190234800688006400F00280FD1FFE7C4
:101600001E4800680721C9020840C10A012088401D
:10161000039003991C48FEF76BFD029025E01848E3
:10162000006838210840082803D1FFE715480290D8
:101630001AE01348006838210840202804D1FFE749
:101640000120C00302900EE00D48006838210840D8
:10165000182804D1FFE77D200002029002E000205C
:101660000290FFE7FFE7FFE7FFE702980199FEF727
:101670003FFD0290029804B080BDC04600100240B9
:101680000810024000127A00006CDC0280B586B0BF
:1016900004900498002804D1FFE705A901200870F0
:1016A000F0E104980078C007002876D0FFE7F748FB
:1016B0000068382108400290029808280AD1FFE704
:1016C00004984068002804D1FFE705A901200870AC
:1016D000D8E161E0FFE704984068012109048842ED
:1016E00007D1FFE7EA4908680122120410430860A5
:1016F0001DE0049840680521090488420BD1FFE7EA
:10170000E34908680122930418430860086812043A
:10171000104308600AE0DE49086801221304984378
:1017200008600868920490430860FFE7FFE7FFE75E
:1017300004984068002817D0FFE7FFF799FC039052
:10174000FFE7D3480068800300280CD4FFE7FFF7C9
:101750008FFC0399401A652804D3FFE705A90320ED
:1017600008708FE1EDE716E0FFF782FC0390FFE7DA
:10177000C7480068800300280CD5FFE7FFF778FC16
:101780000399401A652804D3FFE705A903200870D0
:1017900078E1EDE7FFE7FFE7FFE7049800788007CF
:1017A000002800D490E0B948006838210840029031
:1017B0000298002835D1FFE70498C068002804D1BA
:1017C000FFE705A9012008705CE1B24908687F22A3
:1017D00012029043049A5269120210430860029860
:1017E000002811D1FFE7AA4802680721C9028A43ED
:1017F000049B1B691A43026000680840C10AA6489E
:10180000C840A6490860FFE7A5480068FFF754FCF8
:10181000002804D0FFE705A90120087032E1FFE7A6
:1018200051E00498C06800282FD0FFE79849086865
:101830000722D2029043049A126910430860086894
:101840000122120210430860FFF712FC0390FFE729
:101850008F480068400500280CD4FFE7FFF708FC1C
:101860000399401A032804D3FFE705A90320087051
:1018700008E1EDE7874908687F2212029043049A45
:1018800052691202104308601CE081490868012275
:10189000120290430860FFF7EBFB0390FFE77C48E0
:1018A0000068400500280CD5FFE7FFF7E1FB03992E
:1018B000401A032804D3FFE705A903200870E1E0DC
:1018C000EDE7FFE7FFE7FFE704980078000700284F
:1018D00050D5FFE76D4800683821084018280AD124
:1018E000FFE704988069002804D1FFE705A90120DB
:1018F0000870C7E03DE00498806900281CD0FFE72D
:1019000068490868012210430860FFF7B1FB0390A3
:10191000FFE764480068800700280CD4FFE7FFF762
:10192000A7FB0399401A032804D3FFE705A9032066
:101930000870A7E0EDE71BE05A49086801229043D0
:101940000860FFF795FB0390FFE7564800688007A3
:1019500000280CD5FFE7FFF78BFB0399401A0328FB
:1019600004D3FFE705A9032008708BE0EDE7FFE74C
:10197000FFE7FFE704980078400700287ED5FFE7DF
:1019800001A900200870414800683821084020283B
:101990000AD1FFE704988068002804D1FFE705A971
:1019A000012008706EE068E0FFE704988068012875
:1019B00006D1FFE73C49086801221043086019E09E
:1019C0000498806805280AD1FFE73749086804228F
:1019D00010430860086801221043086009E032499A
:1019E0000868012290430860086804229043086058
:1019F000FFE7FFE7FFE704988068002818D0FFE7BB
:101A0000FFF736FB0390FFE72748006880070028B0
:101A10000DD4FFE7FFF72CFB0399401A23498842B6
:101A200004D3FFE705A9032008702BE0ECE717E0DB
:101A3000FFF71EFB0390FFE71B48006880070028A4
:101A40000DD5FFE7FFF714FB0399401A17498842A9
:101A500004D3FFE705A90320087013E0ECE7FFE7D4
:101A600001A80078012807D1FFE711490868012281
:101A7000120790430860FFE7FFE7FFE705A9002092
:101A80000870FFE705A8007806B080BD0810024086
:101A90000010024004100240006CDC020400002030
:101AA0000C000020601002405C100240891300000E
:101AB0003C10024080B582B00190019800F0A2FA7B
:101AC00002B080BD83B00190FFE701988421405CA3
:101AD000012804D1FFE702A9022008702BE0019938
:101AE000842201208854FFE7FFE7019988222420FF
:101AF0008850019800680068009001980368186891
:101B00000121884318600098490788430090019993
:101B10000020486600980199096808600199202012
:101B20008850FFE70199842200208854FFE702A92A
:101B300000200870FFE702A8007803B0704780B566
:101B400086B004900391FFE704988421405C01284B
:101B500004D1FFE705A90220087034E0049984222B
:101B600001208854FFE7FFE704998822019224208E
:101B7000885004980068006802900498016808681A
:101B80000122904308600498006880680721490694
:101B9000884303990843049909688860049800F011
:101BA00099FA019A0298049909680860049920201A
:101BB0008850FFE70499842200208854FFE705A994
:101BC00000200870FFE705A8007806B080BD80B54A
:101BD00086B004900391FFE704988421405C0128BB
:101BE00004D1FFE705A90220087034E0049984229B
:101BF00001208854FFE7FFE70499882201922420FE
:101C00008850049800680068029004980168086889
:101C10000122904308600498006880680721490702
:101C2000884303990843049909688860049800F080
:101C300051FA019A029804990968086004992020D1
:101C40008850FFE70499842200208854FFE705A903
:101C500000200870FFE705A8007806B080BD80B5B9
:101C600082B000900098002804D1FFE701A901206C
:101C700008704AE000988069002801D0FFE700E082
:101C8000FFE7009888214058002808D1FFE7009915
:101C9000842200208854009800F03CF8FFE7009967
:101CA0008822242088500098016808680122904307
:101CB00008600098806A002804D0FFE7009800F0D0
:101CC00053FAFFE7009800F009FC012804D1FFE770
:101CD00001A90120087018E00098016848680922ED
:101CE000D202904348600098016888682A22904395
:101CF0008860009801680868012210430860009815
:101D000000F0E0FA01A90870FFE701A8007802B02E
:101D100080BD000080B590B00F90002000900E9024
:101D20000D900C900B900A900990089007900690E7
:101D30000590049003900F980068AF49884233D112
:101D4000FFE7012003900020059003A8FFF720FA89
:101D5000002803D0FFE7FEF7E1FCFFE7FFE71348A9
:101D60000268012189030A4302600068084002906A
:101D70000298FFE7FFE78048026801210A430260FA
:101D80000068084001900198FFE703200A900220B4
:101D90000B9000200C900D9004200E900520000761
:101DA0000AA9FEF7DFFFFFE710B080BD4010024038
:101DB00010B58AB00890079106A80280059308988C
:101DC00088214058202800D09FE00798002805D09F
:101DD000FFE706A80088002804D1FFE709A9012031
:101DE000087096E00898806801210903884210D1A4
:101DF000FFE70898006900280BD1FFE707A80078E3
:101E0000C007002804D0FFE709A90120087080E07E
:101E1000FFE7089990220020885008998822212005
:101E20008850FFF725F902900698089954228852A5
:101E3000069808995622885208988068012109035B
:101E400088420AD1FFE708980069002805D1FFE71A
:101E5000002004900798039004E007980490002065
:101E60000390FFE7FFE708985621405A002831D039
:101E7000FFE70898029B059900918021002200F05D
:101E8000A5FC002808D0FFE7089988222020885068
:101E900009A9032008703CE0049800280BD1FFE753
:101EA000039800881D4908400899096888620398CA
:101EB000801C039008E004980078089909688862FB
:101EC0000498401C0490FFE708995622885A401E47
:101ED0008852C8E70898029B05990091402100228A
:101EE00000F074FC002808D0FFE708998822202021
:101EF000885009A9032008700BE008998822202047
:101F0000885009A90020087003E009A90220087080
:101F1000FFE709A800780AB010BDC046FF01000025
:101F2000FFE7FEE780B58AB000200990089007908F
:101F300006900590FFE71048026801210A430260FD
:101F40000068084004900498FFE70520000703900C
:101F50007021019100220292FFF774F8019A029910
:101F600003980592012206920791089105A9FEF7B0
:101F7000F9FE0AB080BDC0463410024080B582B080
:101F80001C4800901C490160E12149024160002188
:101F900001918160C16001610C2242618161C16176
:101FA000016241628162FFF75AFE002803D0FFE719
:101FB000FEF7B4FBFFE70F480021FFF708FE0028FB
:101FC00003D0FFE7FEF7AAFBFFE70A480021FFF76F
:101FD000B6FD002803D0FFE7FEF7A0FBFFE70548AA
:101FE000FFF770FD002803D0FFE7FEF797FBFFE740
:101FF00002B080BD1000002000380140FFE7FEE77E
:102000007047704780B584B002900298401E000E61
:10201000002803D0FFE70120039011E00298401E42
:102020000949086000200190C043032100F052FCE0
:10203000019806490860064A072111600390FFE7EE
:10204000039804B080BDC04614E000E018E000E052
:1020500010E000E080B5FFF70FF880BD80B58EB0CE
:10206000002001900D900C900B900A900990089020
:10207000079006900590049003900290022107912A
:10208000012109020A910B9040200C9007A8FFF74C
:10209000FDFA002803D0FFE7FEF740FBFFE707202B
:1020A00002900020039004900590069002A8012160
:1020B000FFF74AF9002803D0FFE7FEF72FFBFFE701
:1020C0000EB080BD0120C006014908607047C046BF
:1020D00008ED00E070B58AB009900998406E0028BC
:1020E00008D1FFE709996A220120885209996822DC
:1020F000885233E008A901910820087007A90870E8
:10210000099800688068072252061040400E06AA0F
:1021100002921070099800688068420F05A802704A
:10212000097802780E480490805C48430D49039179
:10213000895CFDF7DDFF019B029A03990446049830
:10214000099D6A26AC531B781278805C5843895CE1
:10215000FDF7CEFF099968228852FFE70AB070BDEB
:10216000943300088C33000881B000900098282137
:10217000405C000700280CD5FFE700980068406825
:102180000121C903884300998A6B1043096848609C
:10219000FFE700982821405CC00700280CD0FFE72B
:1021A0000098006840680121490488430099CA6A80
:1021B000104309684860FFE700982821405C8007C9
:1021C00000280CD5FFE70098006840680121090449
:1021D000884300990A6B104309684860FFE700983C
:1021E0002821405C400700280CD5FFE700980068D4
:1021F000406801218904884300994A6B10430968AB
:102200004860FFE700982821405CC00600280CD5F4
:10221000FFE700980068806801210903884300995E
:10222000CA6B104309688860FFE700982821405C6A
:10223000800600280CD5FFE700980068806801211F
:102240004903884300990A6C104309688860FFE7D6
:1022500000982821405C400600281DD5FFE7009823
:1022600000684068012109058843009A536C1843AF
:10227000126850600098406C88420CD1FFE70098CB
:102280000068406803214905884300998A6C10431F
:1022900009684860FFE7FFE700982821405C0006D6
:1022A00000280CD5FFE70098006840680121C904A8
:1022B00088430099CA6C104309684860FFE701B081
:1022C0007047000080B590B00590059990220020DD
:1022D0008850FEF7CDFE049005980068006800075E
:1022E000002832D5FFE70598049B4D490091012154
:1022F0004905002200F06AFA002825D0FFE7FFE731
:10230000EFF3108009900998039001200F900F9827
:1023100080F310880598016808688022904308605F
:1023200003980E900E9880F31088FFE70599882295
:1023300020208850FFE70599842200208854FFE779
:1023400006A90320087066E0FFE7059800680068AA
:102350004007002849D5FFE70598049B30490091C4
:1023600001218905002200F031FA00283CD0FFE766
:10237000FFE7EFF3108008900898029001200D907D
:102380000D9880F3108805980168086809225201A9
:102390009043086002980C900C9880F31088FFE737
:1023A000FFE7EFF3108007900798019001220B924E
:1023B0000B9880F3108805980168886890438860BE
:1023C00001980A900A9880F31088FFE705998C22FB
:1023D00020208850FFE70599842200208854FFE7D9
:1023E00006A90320087016E0FFE70599882220203F
:1023F000885005998C22885005990020C866059957
:102400000867FFE70599842200208854FFE706A9A2
:1024100000200870FFE706A8007810B080BDC04615
:10242000FFFFFF018DB00390FFE7EFF310800690F0
:102430000698029001200C900C9880F31088039865
:1024400001680868092252019043086002980B90C5
:102450000B9880F31088FFE7FFE7EFF310800590FB
:102460000598019001200A900A9880F3108803983B
:1024700001688868184A1040886001980990099896
:1024800080F31088FFE70398C06E012818D1FFE79A
:10249000FFE7EFF31080049004980090012008906B
:1024A000089880F310880398016808681022904308
:1024B000086000980790079880F31088FFE7FFE70F
:1024C00003998C222020885003990020C866039924
:1024D00048670DB07047C046FEFFFFEF80B58CB077
:1024E0000B9006A9002008700B9988680A691043B0
:1024F0004A691043C96908430A900B98006800684C
:10250000AA4908400A9908430B99096808600B9882
:10251000006840680321090388430B99CA68104387
:10252000096848600B9880690A900B98016A0A98BC
:1025300008430A900B98006880689D4908400A99F2
:1025400008430B99096888600B980068C06A0F21DE
:1025500088430B994A6A10430968C862FFE70B98E1
:102560000068944988422AD1FFE794480068032113
:102570000840049003281DD80498810001A0405809
:102580008746C04695250008A52500089D2500081A
:10259000AD25000808A9002008700FE008A9022056
:1025A00008700BE008A90420087007E008A90820BB
:1025B000087003E008A910200870FFE70EE00B98F0
:1025C00000687D49884204D1FFE708A9002008700F
:1025D00003E008A910200870FFE7FFE7FFE70B986A
:1025E000C0690121C90388426DD1FFE708A80078BE
:1025F000039008282CD80398810001A040588746F2
:1026000025260008512600082D260008512600081E
:1026100041260008512600085126000851260008CE
:1026200049260008FEF7CAFF059017E064480068D5
:10263000C0B24009411C6348FDF75AFD05900DE00A
:10264000FEF7CEFF059009E00120C003059005E0EC
:102650000020059006A901200870FFE705980028D2
:1026600030D0FFE705980B990291496A4A00564914
:10267000895AFDF73DFD0299400049684A088018D3
:10268000FDF736FD07900798102816D3FFE707A837
:102690004088002811D1FFE707990F20814309A83E
:1026A000018007990E2211404A08099911430180BF
:1026B00000880B990968C86003E006A9012008702A
:1026C000FFE7FFE761E008A80078019008282DD80F
:1026D0000198810001A040588746C04601270008A4
:1026E0002D270008092700082D2700081D270008AE
:1026F0002D2700082D2700082D2700082527000872
:10270000FEF75CFF059017E02D480068C0B2400955
:10271000411C2C48FDF7ECFC05900DE0FEF760FF36
:10272000059009E00120C003059005E00020059018
:1027300006A901200870FFE70598002824D0FFE7CC
:1027400005980B990091496A4A001F49895AFDF77B
:10275000CFFC009949684A088018FDF7C9FC07902A
:10276000079810280BD3FFE707A84088002806D158
:10277000FFE707A800880B990968C86003E006A96D
:1027800001200870FFE7FFE7FFE70B996A220120AD
:1027900088520B99682288520B99002048670B9940
:1027A000886706A800780CB080BDC046F369FFCFEB
:1027B000FFF4FF1100380140004400405410024073
:1027C00000100240006CDC029C33000810B586B09B
:1027D000089C0490039102A802700193FFE70498FB
:1027E0000068C06903990840401A4142484102A963
:1027F0000978884266D1FFE70898401C002860D01D
:10280000FFE7FEF735FC0199401A0899884204D881
:10281000FFE70898002804D1FFE705A90320087006
:1028200054E00498006800684007002848D5FFE796
:102830000398802844D0FFE70398402840D0FFE762
:1028400004980068C06908210840C008012816D112
:10285000FFE7049801680820009008620498FFF7D9
:10286000E1FD0098049990228850FFE704998422A2
:1028700000208854FFE705A90120087026E004988D
:102880000068C0690121C9020840C00A012816D1A8
:10289000FFE7049801680120C00208620498FFF76E
:1028A000C1FD0499902220208850FFE704998422DA
:1028B00000208854FFE705A90320087006E0FFE721
:1028C000FFE78CE705A900200870FFE705A800785E
:1028D00006B010BD70B582B0024601A8027000912A
:1028E00000214056002816D4FFE7002401A908570C
:1028F0000322D3431840174A805809578C07E50E26
:10290000FF24AC40A043009CA401E4B2AC402043AF
:10291000194088501AE001A908780F24204008388F
:102920000322D34318400A4A8058002549578D078F
:10293000EE0EFF25B540A843009DAD01EDB2B540B8
:1029400028432140083919408850FFE702B070BD84
:102950001CED00E000E400E080B582B00190009141
:10296000044801A90122044BFFF722FA019802B0A2
:1029700080BDC04610000020FFFF000080B58AB077
:10298000002008900990FEF781FBFFF767FB6420A9
:10299000FEF762F80898FDF767FEFFF7C3FAFFF746
:1029A000EDFAFFE7052000070490102102910122B3
:1029B0000192FEF747FB019A049820210391FEF74C
:1029C00041FB019A049840210591FEF73BFB0F481B
:1029D00000F020F864200790FEF73EF80299049872
:1029E00000220692FEF72EFB03990498069AFEF742
:1029F00029FB04980599069AFEF724FB044800F089
:102A000009F80798FEF728F8CCE7C046BE3300085F
:102A1000B43300080FB410B503A9044B044A02985C
:102A200000F0E8F810BC08BC04B0184759290008A9
:102A3000000000202021020C01D010211046020AC3
:102A400001D010460839020901D01046091F82083A
:102A500001D01046891E420801D0881E7047081A0E
:102A6000704702E008C8121F08C1002AFAD1704757
:102A70007047002001E001C1121F002AFBD17047FE
:102A8000F0B51FB486B00998089A030D00210243DF
:102A900014D05148514A1818504305141198012870
:102AA00010981AD0281A401C00264D4F4D49009608
:102AB00001910490002812DA444211E01198012497
:102AC00049A3012801D11098C1430698119A846046
:102AD0000360C26041600BB0F0BD4042E4E70446D1
:102AE000210500203F4A001C51410391029012E051
:102AF000E00707D032463B4601990098FDF7FAFB04
:102B00000191009032463B4610461946FDF7F2FB14
:102B100006460F466410002CEAD10498039B002857
:102B2000029A0999089806DAFDF7E4FB019B009ADE
:102B3000FDF7E0FB05E0FDF745FC019B009AFDF782
:102B400041FC04460E460022284BFDF7D3FC03D877
:102B50000020C043014607E00022254B20463146B5
:102B6000FDF716FBFDF7A6FC102409E0002C0ADB9C
:102B70000A220023FDF7DBFA079B30321A55641E48
:102B800002460A43F2D11122641C079B121B1C1936
:102B9000119B012B03D0012308430ED10AE0084307
:102BA00004D0112010900020119077E71098151A8A
:102BB0006D1E0BE01098824202DD00236D1C03E0C5
:102BC000824201DA00236D1E002BEED00698119987
:102BD0008260C16030C07EE701FCFFFF104D000045
:102BE000000014400000F03F300000000000F043FF
:102BF0000000E03FFFB597B00646002518E2252803
:102C000077D100242746FD49049400E00443761C54
:102C100032780120203A90400842F7D130782A28B3
:102C20000ED00222307801463039092916D804998D
:102C30000A235943303940181443761C0490F1E7B5
:102C4000189802C804911890002904DA0120400362
:102C500004434842049002200443761C30782E2816
:102C600014D1042004437078761C2A2809D11898BE
:102C7000761C80C8189009E00A214F43303FC719DD
:102C8000761C3078014630390929F5D930786C281E
:102C900010D006DC4C281AD068280ED06A2817D12C
:102CA00004E0742813D07A2812D110E001204005E6
:102CB00004430CE00121090501E0032109050C434F
:102CC0007178814203D1012000052418761C761CFE
:102CD0003078119066280BD013DC58287DD009DCA1
:102CE00000287BD04528F6D04628F4D047281AD1B2
:102CF000A5E118E0632835D0642870D0652812D18A
:102D00009DE170286CD008DC6728F1D069287BD061
:102D10006E280DD06F2806D1BAE073282ED0752802
:102D200071D0782859D01A9A199990476D1C7EE174
:102D30006002400F022809D003280DD004281898FB
:102D400001680DD00D60001D189070E11898EA1709
:102D500001680D604A60F6E7189801680D80F2E797
:102D60000D70F0E718986A4601781172001D1890EE
:102D70000020507202A80090012005E0189802C8B7
:102D8000189000200091C04361070DD5002101E09B
:102D90000199491C0191B94212DA8142F8DB009A8B
:102DA000515C0029F4D10BE0002101E00199491C9C
:102DB00001918142FADB019A0099895C0029F5D1E1
:102DC000019904981A9B471A21463846199A00F02F
:102DD00097FA0199401945180BE04FE02CE113E0F8
:102DE0004EE0009800990078491C00911A9A1999B0
:102DF00090470198401E0190401CF2D12146384670
:102E00001A9B199A10E137E00A20002100900191E5
:102E10006002410F022907D0189A01CA1892C217FE
:102E20009446032908D00AE01898C01DC108C900BB
:102E300005C91891944607E000B2C21794460429C8
:102E400002D140B2C1178C4600226146944506DA91
:102E50000A460021404291418C462D2102E0210585
:102E600004D52B216A461173012103E0E10701D04B
:102E70002021F7E7029155E00A200AE0102008E03F
:102E8000102000900021042004430191082703E052
:102E900008200021019100906002410F022907D013
:102EA000189A01CA189200229446032908D008E013
:102EB0001898C01DC108C90005C91891944603E0BF
:102EC00080B2042900D1C0B200210291210729D586
:102ED0001199702906D0009A1021019B4A401A438B
:102EE00005D00EE040216A461173012108E06146D9
:102EF000014306D030216A461173119951730221A2
:102F00000291009A0821019B4A401A430AD1614666
:102F1000014301D1610705D530216A4611730121B2
:102F20007F1E02911199582904D035A10E910DA947
:102F30000D910DE037A1F9E76146019B009AFDF77D
:102F4000F6F80E9B8C469B5C0D9A521E0D921370E8
:102F500061460143F0D10D9805A9081A203001906F
:102F6000600703D501200004844300E00127019895
:102F7000874201DD381A00E00020019900904118D5
:102F8000029809180498401A0490E00306D42146D8
:102F90001A9B199A049800F0B3F94519002706E026
:102FA00003A81A9AC05D199990476D1C7F1C02985E
:102FB0008742F5DBE0030CD521461A9B199A049849
:102FC00000F09EF9451904E01A9A302019999047AB
:102FD0006D1C0099481E00900029F5DC08E00D9852
:102FE0000D990078491C0D911A9A199990476D1CFA
:102FF0000199481E01900029F1DC63E109280100D4
:10300000303132333435363738396162636465665E
:103010000000000030313233343536373839414220
:10302000434445460000000000F05AF94519761C5B
:103030003078002800D0E2E528461BB0F0BD6007DC
:1030400000D406271898C01DC108C90048680A683E
:103050000831C30FDB071891190001D09CA108E0CB
:10306000210501D59BA104E0E10701D09AA100E070
:103070009AA1430011985B08109165280CD006DCDA
:10308000452809D046281DD0472841D141E066286F
:1030900018D067283CD13CE00021112F01DB112022
:1030A00000E0781C0191009008A911A8FFF7E8FC46
:1030B000139905910021119A15927F1C129801977E
:1030C000009150E00120C00703900120019008A961
:1030D000009711A8FFF7D4FC139A149905920022C7
:1030E000119B009212981593059A0192002901D024
:1030F000104602E0791C40180190381A01D5019859
:1031000004E04042401E0090781C0190C01B0290D9
:1031100043E0012F00DA01270021112F01DD1120EA
:1031200000E038460191009008A911A8FFF7A8FC1B
:1031300013990591119A0021129815920091019707
:1031400021070CD40599B94201DB019900E00191F6
:10315000012904DD159A491E515C302906D0B84278
:1031600001DA011D05DA0121029115E00199491EDC
:10317000EDE7002805DC0099411800910199091A32
:1031800003E0019A411C914200DD01910099401A2F
:10319000401C02900120C0070390200706D402992A
:1031A0000198814202DB0020C04302900020694662
:1031B000C87707AF012103980337C907884224D095
:1031C000022011902B201290039800280CDA404224
:1031D00003902D20129007E00A210398FCF788FF46
:1031E00030317F1E039039701199481E11900029CB
:1031F000F2DC03980028EFD1791E1298087030781D
:10320000202108404530BF1E387006A8C01BC01DD5
:10321000039010980078002800D0012001994118EF
:103220000298C0170918039809180498401A401EFC
:103230000490E00306D421461A9B199A049800F0E2
:103240005FF8451910980078002803D01A9A199948
:1032500090476D1CE00324D521461A9B199A0498C7
:1032600000F04EF845191CE00098002807DB009993
:103270000598884203DD1598405C199901E0199979
:1032800030201A9A904700986D1C401C00900298BC
:10329000401E0290002804D11A9A2E2019999047B6
:1032A0006D1C0199481E01900029DDDC05E038788D
:1032B0001A9A7F1C199990476D1C0399481E039018
:1032C0000029F4DC21461A9B199A0498ACE6000008
:1032D0002D0000002B000000200000000000000076
:1032E000F8B5044600251E461746880404D405E0B8
:1032F00039462020B0476D1C641EF9D52846F8BD1C
:10330000FFB50446002581B01E46C80301D530270D
:1033100000E02027880404D505E038460399B0472B
:103320006D1C641EF9D5284605B0F0BD00000000F4
:10333000000000000000000000000000000000008D
:10334000000000000000000000000000010000007C
:10335000020000000300000004000000060000005E
:103360000700000008000000090000000000000045
:10337000000000000000000000000000010000004C
:103380000200000003000000040000000804020422
:103390000801010101010103070100000100020011
:1033A0000400060008000A000C0010002000400085
:1033B000800000014C4544204F4646210A004C4500
:1033C00044204F4E210A004572726F723A204F70AE
:1033D00074696F6E2042797465732050726F6772E2
:1033E000616D6D696E67206661696C6564210A00B4
:1033F0004572726F723A204F7074696F6E20427915
:10340000746573204C61756E6368206661696C65D4
:1034100064210A004572726F723A204661696C65D8
:103420006420746F20756E6C6F636B20466C6173E3
:1034300068210A004572726F723A204661696C65B4
:103440006420746F20756E6C6F636B204F707469AD
:103450006F6E204279746573210A006E424F4F549B
:103460005F53454C20697320616C726561647920FB
:1034700073657420746F2074686520646573697265
:1034800065642076616C75652E0A0000B034000812
:103490000000002010000000622A0008C03400086C
:1034A00010000020B0080000722A00080000000090
:1034B00000000000001BB700010000000400000035
:04000005080000C12E
:00000001FF
