:020000040800F2
:10000000E8080020D500000859120008A9110008CE
:1000100000000000000000000000000000000000E0
:100020000000000000000000000000005D12000859
:1000300000000000000000005B1200085F120008D2
:10004000E700000800000000E7000008E7000008E3
:10005000E7000008E7000008E7000008E7000008E4
:1000600000000000E7000008E7000008E7000008C3
:10007000E7000008E7000008E700000800000000B3
:10008000E70000080000000000000000E700000892
:1000900000000000E7000008E7000008E700000893
:1000A00000000000E700000800000000E700000872
:1000B000E700000800000000000000000000000051
:1000C0000348854600F064F8004800478918000896
:1000D000E80800200448804704480047FEE7FEE7A0
:1000E000FEE7FEE7FEE7FEE769120008C100000830
:1000F00070B50446002903D000202022012310E01F
:10010000002801D00020C043C046C0460DE025466F
:10011000D5408D4205D30D469540641B1D46954044
:1001200040191546521E002DF1DC214670BDF0B578
:100130001FB40646002082B005464024019100907D
:100140001BE0019922460F46304600F043F8049A1E
:10015000059B801A994110D310461946224600F09B
:1001600029F8361A8F410197224601200021009F6D
:1001700000F020F838184D4100902046641E0028F9
:10018000DFDC019B00982946324607B0F0BD000035
:10019000064C0125064E05E0E36807CC2B430C3CDA
:1001A00098471034B442F7D3FFF78EFF08200008B9
:1001B0002820000810B5202A04DB0146203A91408F
:1001C000002010BD914020239C1A0346E3401943B0
:1001D000904010BD10B5202A04DB0846203AD040DC
:1001E000002110BD0B46D340D0402024A21A9140DC
:1001F0000843194610BD72B6FEE7000070B504460C
:1002000000F04CFA0619A44D2868C00305D500F08B
:1002100045FAB042F8D3032070BD29689F480840D2
:10022000286003D09B494860012070BD00F036FA79
:1002300004192868400305D500F030FAA042F8D32D
:10024000032070BD002070BDF0B583B00546914C11
:100250002078012802D1022003B0F0BD02910027CE
:100260006760012020707D20C6003046FFF7C6FF82
:10027000002802D0277003B0F0BD286804280BD1F5
:100280001C48801C22490A6802430A603046FFF776
:10029000B5FF277003B0F0BDF843029908603946F6
:1002A0006F68A868C01987420191084619D2FC00FE
:1002B00017490868104A104020430E4A104308604E
:1002C0003046FFF79BFF002808D16868A968081826
:1002D00008347F1C8742EBD3019801E002990F603C
:1002E0006C4C0B4B1968022291431960019F2770D7
:1002F00003B0F0BD0200010085FFFEFF0120C00732
:1003000003490A6802430A600868C043C00F704787
:1003100014200240F0B589B00E465E490C78012CDD
:1003200003D10222104609B0F0BD06930292039059
:1003300000200790486001240C707D20C50000F06B
:10034000ADF90495471905942504534C20682842BB
:1003500006D000F0A3F9B842F8D303224D4F94E041
:1003600020684E490840206003D04A4F7860059AC3
:100370008BE000F093F90499471801200590800460
:10038000089020680899084204D000F087F9B84224
:10039000F7D3E2E7039801280AD1606801210143FD
:1003A000616002983060BFF36F8F0698706044E020
:1003B0006068089908436060EFF31080019072B69E
:1003C000079A11460696029E7058069B58505B1875
:1003D000701847685F6087689F60C768DF6007695B
:1003E0001F6147695F6187699F61C769DF61076A4C
:1003F0001F62476A5F62876A9F62C76ADF62076B34
:100400001F63476B5F63876B9F63C06BD8630F206D
:100410001043403110323F28D6D308E020682842EC
:1004200008D02068284205D02068284202D02068E1
:100430002842F3D1019880F31088164F00F02EF96E
:10044000049946182068284205D000F027F9B042E8
:10045000F8D3032215E0206810490840206002D03C
:100460007860059A0DE000F019F9049945182068A4
:100470000899084204D000F011F9A842F7D3E8E740
:1004800000226068039988436060079838701046BE
:1004900009B0F0BDCC00002010200240FAC30000DB
:1004A0000648C168002901D4002070470449016052
:1004B00004490160C068C00F7047C0460820024070
:1004C00023016745AB89EFCDF0B58BB00991694940
:1004D0000790884201D0062000E00520009009988E
:1004E0000268002A00D1C3E0012000250A95089582
:1004F0000290064613E0039805437D60049D099829
:1005000002681046069EF0402D1D0A9B9B1C0A9314
:10051000089B08330893761C002800D1A8E00696B3
:10052000701E029C0590844022400392E7D00495FF
:100530000998476810203843122813D11C20049AC8
:1005400010400F231D468540059AD2089200079956
:100550008A180999176AAF430D691D4085403D43CC
:1005600015624F680322384610400A9B984001925A
:100570009A4007990D68954305430D60D343122FA8
:10058000049D18D80120B8403D4A104211D0079E62
:10059000B06818400999CA6819460A9B9A400B46E8
:1005A0000243B2603809059A90407268A243024340
:1005B0007260032FA3D0079CE068184009998A68ED
:1005C0000A9B9A400243E260F80098D518220898E6
:1005D00002400F209040059B019DAB43264FFD1824
:1005E0002B6E8343603505200007079981420AD0AE
:1005F00024480799814208D0234807998142009EE8
:1006000004D1022602E0002600E0012696401E43A7
:100610002E601A4E356809984268D00312D50398A7
:10062000054335607568900312D40398854375605F
:100630003D68D00212D4039885433D607D689002E6
:1006400013D558E703988543356075689003ECD55A
:100650000398054375603D68D002ECD503980543C7
:100660003D607D68900200D545E70398854344E7E7
:100670000BB0F0BD0014005000180240801802407A
:10068000060006000004005000080050002A02D0B6
:100690001822815070472822815070470548006811
:1006A0007047C0461A48007802490A681018086066
:1006B0007047C046E400002080B5032000F008F831
:1006C000002801D0012080BD00F024F8002080BD6A
:1006D00070B50F4E31780124002916D005467D20D3
:1006E000C000FFF705FD0146DE480068FFF700FD8A
:1006F00000F068FB032D08D8002806D10024E04351
:100700002946224600F01CF87560204670BDC046A0
:100710002800002082B0094841680122114341604D
:100720004168114001910199110702680A43026072
:10073000006808400090009802B070473C100240EA
:10074000002805D40322034693430C4A9A1806E076
:100750000F220240083A03239A43074BD21880071E
:10076000C00E8901C9B28140FF23834010689843BD
:10077000084310607047C0461CED00E000E400E054
:10078000F0B585B0044600784006474F01D40020FC
:1007900037E0012001073A46203A0292126803919D
:1007A0000A40019208D1029B1968039A114319600B
:1007B0001968114004910499032100910A023968D3
:1007C00011400FD0A26991420AD0396800043A68FA
:1007D00002433A603A6882433A60344801403960E3
:1007E000C8074FD1386831490840A16901433960D1
:1007F00000200199002904D1029B1968039A9143B2
:1008000019602568E90709D1A90711D4A9061AD4E6
:10081000690723D429062CD405B0F0BD3946083920
:100820000A6803239A43A36813430B60A907EDD515
:10083000032109033A46083A13688B43E1681943D8
:100840001160A906E4D5032189073A46083A1368DE
:100850008B436169194311606907DBD50321890363
:100860003A46083A13688B432169194311602906F7
:10087000D2D55C3F3A68E0218A4361681143396010
:1008800005B0F0BDFFF70AFF0646754D38688007D2
:10089000A8D4FFF703FF801BA842F7D9009801995D
:1008A0000029A9D0ADE7C0465C100240FFFCFFFF65
:1008B000F0B583B00D46012100281BD001910290B4
:1008C0006648006807242040A84216D26349086899
:1008D000A04328430860624EFFF7E0FE07465F48EA
:1008E00000682040A84208D0FFF7D8FEC01BB042E5
:1008F000F5D90321084603B0F0BD029E3068810798
:10090000904B10D5410707D57B2109021A688A430D
:100910000B210902511819600F2109021A688A4334
:10092000F16811431960C0071BD14C480068204092
:10093000A84229D949490868A04328430860484F7C
:10094000FFF7ACFE0646454800682040A8421BD091
:10095000FFF7A4FE801BB842F5D90321084603B077
:10096000F0BD1946083908681C229043029EB268FF
:1009700002430A60706800282CD003282DD001287B
:100980002DD1096889032CE0029A107840076D4B3D
:1009900005D520031968814310690843186018467B
:1009A000083801681A689206520F06D01A68382073
:1009B0000240082A07D1644837E000688004420FEB
:1009C0006248D04031E01A680240202A25D1012037
:1009D000C0032AE00968490503E0996D00E0596DFC
:1009E0008907019986D51968A14301431960F44F1D
:1009F000FFF754FE0646534800683821014002982C
:100A00004068C000814290D0FFF748FE801BB8428A
:100A1000F1D90321084603B0F0BD1A680240182A34
:100A200001D0002001E07D200002C906490F491CC9
:100A3000FFF75EFB4349096889093C220A402949BE
:100A400089581F220A40D040DB490860DB48006813
:100A5000FFF73EFE0146084603B0F0BD002002400D
:100A6000881300003000002010B5364C20460838AE
:100A7000016822689206520F06D022683820024090
:100A8000082A07D1304814E000688004420FC948A2
:100A9000D0400EE022680240202A02D10120C0038B
:100AA00007E022680240182A01D0002001E07D20E2
:100AB0000002C906490F491CFFF71AFB2168890982
:100AC0003C220A40074989581F221140C840BA49B0
:100AD00008602168890A1C230B400349C95811404A
:100AE000C84010BDC41E0008041F000880B515488A
:100AF0000246083A116803689B065B0F06D003683C
:100B000038221340082B07D10F4814E010688004E6
:100B1000420FA848D0400EE003681340202B02D1BA
:100B20000120C00307E000681040182801D0002011
:100B300001E07D200002C906490F491CFFF7D8FAE1
:100B400080BDC0460810024000127A00006CDC0232
:100B5000F0B581B00125002800D118E104460095C8
:100B60000078C007924F07D0B8683821014060680C
:100B7000082948D1002875D0207880071ED4207815
:100B800000070AD58A4B986838220240A169182AC2
:100B90006CD10029009D00D1F9E0207800254007A4
:100BA00000D4F4E0824FB86838210140A0682029C1
:100BB00070D1002800D0EAE00125E8E0E1687C4F30
:100BC000B8688006400F2FD0386800296FD0072101
:100BD000C9028843216901433960012001023A6852
:100BE0000A433A608602FFF759FD054638683042ED
:100BF00000D089E0FFF752FD401B0228F6D90325FB
:100C0000284601B0F0BD012256041104884207D0E5
:100C100005231B0498425ED190043A6802433A606F
:100C20003868084338605FE000291BD07F2000024D
:100C30007968814360690002084378600720C00238
:100C40003968814320690843386038688004400F60
:100C50005849C1405848016058480068FFF738FDBE
:100C600000288CD0009D284601B0F0BD186E0029E8
:100C700053D0012108431866FFF710FD06464C4883
:100C8000006E800789D4FFF709FD801B0325022829
:100C9000F5D97CE0012805D0052850D1F86D042154
:100CA0000143F965F86D01210143F96551E0012126
:100CB0000A02904338608F02FFF7F0FC06463C487A
:100CC0000068384200D15AE7FFF7E8FC801B032593
:100CD0000228F4D95BE03B688B433B6091043A689F
:100CE0008A433A60002844D0FFF7D8FC05463868AC
:100CF000304200D040E7FFF7D1FC401B6428F6D912
:100D00000325284601B0F0BD7F20000279688143A9
:100D1000606900020843786031E701218843186662
:100D2000FFF7BCFC06462248006E800700D434E77B
:100D3000FFF7B4FC801B03250228F4D927E0F96DE6
:100D400001229143F965F96D04229143F965002868
:100D500020D01B4EFFF7A2FC0446F86D800716D486
:100D6000FFF79CFC001BB042F7D90325284601B0D1
:100D7000F0BDFFF793FC07460D480068304200D1F4
:100D8000FAE6FFF78BFCC01B03256428F4D928463C
:100D900001B0F0BD0A4EFFF781FC0446F86D8007F4
:100DA000F5D5FFF77BFC001BB042F7D9DDE7C04665
:100DB00000100240006CDC02300000202C000020FB
:100DC00088130000401E010E01D001207047074922
:100DD000074A5060074803680B40032189075918E8
:100DE000016000209060072111607047FFFFFF0045
:100DF00010E000E020ED00E0B0B58421415C012965
:100E000001D10220B0BD0246843224215160016824
:100E10000B680C680125AC430C606C07A3430B60A6
:100E2000002141661170202050600846B0BD0000CE
:100E3000F0B581B08422825C012A02D1022001B087
:100E4000F0BD0546683524222A6206683768326894
:100E50000124A243326007225206B36893430B4336
:100E6000B360406E0028204615D00097B768B06880
:100E7000400F2B49095C2B4A105CC000FFF738F982
:100E800004463801009F400F2549095C254A105C43
:100E9000C000FFF72DF928806C803760002028778C
:100EA0002021296201B0F0BDF0B581B08422825CBE
:100EB000012A02D1022001B0F0BD05466835242286
:100EC0002A620668376832680124A243326007222A
:100ED0005207B36893430B43B360406E002820462B
:100EE00015D00097B768B068400F0D49095C0D4AEE
:100EF000105CC000FFF7FCF804463801009F400F6B
:100F00000749095C074A105CC000FFF7F1F8288028
:100F10006C803760002028772021296201B0F0BD65
:100F2000441F00083C1F0008B0B5002830D004461C
:100F3000054684356868002804D1002028702046C2
:100F400000F028F824206860206801680125A94382
:100F50000160A06A002802D0204600F08DF92046EA
:100F600000F058FA012811D00920C00221684A680F
:100F700082434A6088682A22904388600868012278
:100F800002430A60204600F0E1F905462846B0BD5C
:100F90000120B0BDB0B58EB000240894079406942B
:100FA0000594049403940068AA49884201D00EB0C5
:100FB000B0BD0125029502A8FFF7E2FB002801D091
:100FC000FFF719F9A8038949CA680243CA60CA68C9
:100FD0000240099209980868284308600868284078
:100FE000019004200D900C940B9402200A90032091
:100FF000099005200007019909A9FFF765FA0EB0CD
:10100000B0BDC046F0B585B00F46882141582029B3
:1010100012D10126002F0CD01446002A09D0012637
:101020003203816891420BD1F90709D00169002987
:1010300006D1304605B0F0BD0226304605B0F0BD01
:1010400004930546543500210191E9632121696328
:1010500003901646FFF722FB039902906C802C80C8
:101060008868B04224D1086900283E46049A48D1D5
:10107000002849D0688800281FD0501C494C48D00F
:10108000002A65D108680AE0318821408162B61CD7
:1010900000276988491E6980698800290ED0C169C6
:1010A000090676D5002FEFD0397881627F1CF0E7F2
:1010B000049A019E68880028DFD10868C16900266B
:1010C000490669D4002A64D0511C12D1C16949066D
:1010D00062D4C16949065FD4C16949065CD4C1695B
:1010E0004906F3D558E0039800680168C0694006D6
:1010F00052D4FFF7D3FA0299401A04998842F2D9E0
:1011000049E000260028B5D1074668880028B4D1F8
:10111000D3E708680AE0318821408162B61C0027C5
:101120006988491E698069880029C7D0C169090694
:1011300008D4C169090605D4C169090602D4C16988
:101140000906F3D5002FE6D0397881627F1CE7E7E6
:101150000868C16909060AD4FFF7A0FA049A02993F
:10116000401A904217D8039800680168F1E7002FF1
:1011700003D0397881627F1C04E03188214081628C
:10118000B61C00276988491E698069880029E0D15A
:1011900094E7FFF783FA032620206863304605B002
:1011A000F0BDC046FF010000FEE70000F0B587B0CB
:1011B000002406940D480168012739430160006846
:1011C00038400190019805200507702628463146D1
:1011D0002246FFF75BFA059404940397029602A94E
:1011E0002846FFF771F907B0F0BDC0463410024041
:1011F00010B5174800210C22DE4B0162416281626A
:10120000E124640218C0016041608160C260016134
:1012100041610838FFF788FE002801D0FEF7EBFF98
:101220000B480021FFF740FE002801D0FEF7E3FF46
:1012300007480021FFF7FCFD002801D0FEF7DBFF87
:101240000348FFF7D9FD002801D0FEF7D4FF10BDF9
:101250003800002000380140FEE77047704780B535
:10126000FFF720FA80BD00000120C0060149086098
:101270007047C04608ED00E0B0B5816A0A070CD49B
:10128000CA0714D18A071CD44A0724D4CA062CD40E
:101290008A0634D44A063CD44CE00122D2030368C7
:1012A0005C689443826B22435A60CA07EAD00122E9
:1012B000520403685C689443C26A22435A608A07F6
:1012C000E2D50122120403685C689443026B224356
:1012D0005A604A07DAD50122920403685C68944395
:1012E000426B22435A60CA06D2D501221203036818
:1012F0009C689443C26B22439A608A06CAD5012235
:10130000520303689C689443026C22439A604A0625
:1013100010D501221305026854689C43456C2C4388
:1013200054609D4206D103235B0554689C43836C43
:1013300023435360090607D50121C9040268536895
:101340008B43C06C18435060B0BD0000F0B583B053
:10135000044690200026265027468437FFF79EF942
:1013600003462068016809071FD52948009001201D
:1013700002904105002220461D4600F00FF900288A
:1013800011D0EFF31080029981F3108821680A6868
:1013900080239A430A6080F310882020786003201D
:1013A0003E7003B0F0BD20682B460068400725D58D
:1013B000174800900125A9050022204600F0EEF80C
:1013C00000281BD0EFF3108085F310880921490114
:1013D000226813688B43136080F31088EFF310804A
:1013E00085F3108821688A68AA438A6080F3108890
:1013F0002020B86003203E7003B0F0BD202078604C
:10140000B860E666266730463E7003B0F0BDC04661
:10141000FFFFFF01F0B581B0044600680168524A41
:101420000A40A16823690B4365691D43E1690D43C7
:10143000154305600322120343689343E2681A438D
:101440004260A269236A13438268484D15401D43D8
:101450008560C26A0F239A43676A3A43C262444A6C
:10146000904209D0434A904208D14348406D8007DA
:10147000000F42A2125802E0002200E0102226468D
:1014800068360125E803814211D1082A64D8C04694
:101490007A44127952009744045F1C5F395F5F5FA2
:1014A0002400FFF7E1FA002834D0676A19E0082A1F
:1014B00052D8C0467A44127952009744044D2D4DBB
:1014C000484D4D4D3500FFF7CFFA002843D0676AED
:1014D0002AE0294800680006400F411C2B48FEF70F
:1014E00007FE79002A4A515AFEF702FE4000616861
:1014F0004A081018FEF7FCFD0246103A25498A42B8
:101500002AD201400007400F08431CE0FFF7EEFA23
:101510000028CAD100251FE0174800680006400FC8
:10152000411C1A48FEF7E4FD7900194A515AFEF7AA
:10153000DFFD61684A081018FEF7DAFD0146103930
:10154000144A914208D22168C860002504E0FFF7E0
:10155000CDFA0028BBD100250F483060002060671D
:10156000A067284601B0F0BDF369FFCFFFF4FF117B
:10157000004400400038014000100240000000001C
:10158000040000000200000008000000006CDC0203
:10159000241F0008F0FF000001000100F0B585B035
:1015A0001F4615460E460368D9693140891B4A42D9
:1015B0004A410021AA4222D10A9C002C22D0039148
:1015C000611C24D1D9693140891B4A424A41AA424F
:1015D00031D1D9693140891B4A424A41AA422AD1B4
:1015E000D9693140891B4A424A41AA4223D1D9696B
:1015F0003140891B4A424A41AA42E3D01BE00846D7
:1016000005B0F0BDFFF74AF8032005B0F0BD402E4D
:10161000049001D0802E14D1FFF740F8C01BA042E7
:101620000CD8049800680168C0693040801B4142B2
:101630004141A942F0D0039805B0F0BD032005B0A8
:10164000F0BD8430019001200090C002029006E0BD
:10165000C8693040801B41424141A942EBD1FFF7AC
:101660001DF8C11B0320A1423FD8049909680A68EC
:101670005207EDD5CA69120739D4CA69029B1A42CA
:10168000E6D0029A0A62EFF31082012181F31088FA
:1016900009235B01049C246825689D43256082F32F
:1016A0001088EFF3108281F31088049B1B689C68FC
:1016B0002A4D25409D60049B82F31088DA6E012A32
:1016C0000BD1EFF3108281F3108819680B68102496
:1016D000A3430B60049B82F310882021019CA1602E
:1016E0000022DA665A672270E16005B0F0BD082575
:1016F0000D62EFF31081009880F3108809225201E7
:10170000049B1B681C6894431C6081F31088EFF3F2
:10171000108180F31088049A126893680F4C1C4063
:10172000049B946081F31088D96E01290CD1EFF3EA
:101730001081012282F310881A6813681024A343D1
:101740001360049B81F310882021019A916000218D
:10175000D96659671170D56005B0F0BDFEFFFFEF87
:10176000F0B585B01C4617460D460646002004908D
:10177000FEF796FE002804D01CA000F093FB05B0F5
:10178000F0BD0120039002970220019001A804A956
:10179000FEF75AFD002807D004991CA000F028F994
:1017A000FEF7ACFD05B0F0BD24A0394600F020F9ED
:1017B000002E0BD00CCD01202146083DFEF7AAFDDE
:1017C00000280AD108340835761EF3D1254800F0E8
:1017D00069FBFEF793FD05B0F0BD2148214600F0FE
:1017E00007F9FEF78BFD05B0F0BDC0464572726F7C
:1017F000723A204661696C656420746F20756E6C66
:101800006F636B20464C4153482E00004572726F47
:10181000723A204661696C656420746F206572615C
:10182000736520464C4153482E20506167654572D0
:10183000726F723A2025640A00000000464C415342
:101840004820506167652025752065726173656465
:10185000207375636365737366756C6C792E0A000B
:101860004C1F0008DD1F000880B582B001900448BD
:1018700001A90122034BFFF7C5FB019802B080BD0F
:1018800038000020FFFF00008EB0FEF715FF002497
:101890000C940A940D940B940994089402200790D8
:1018A00040200C90012000020A9007A8FFF750F991
:1018B000002801D072B6FEE703940720029004943A
:1018C0000594069402A80121FEF7F2FF002801D03A
:1018D00072B6FEE7FFF76AFCFFF78AFC2CA000F067
:1018E000E1FA334D2B686A682E46083603200190D2
:1018F0003146FFF735FF2F682E48394600F078F85B
:101900007B683A682C48394600F072F8FB68BA6880
:1019100039460831284800F06BF87B693A6910377E
:101920002548394600F064F8244F384600F0BAFAEA
:1019300023A000F0B7FA2B482B492C4AAA60EC6090
:1019400029616C61A861EC612B686A680198314675
:10195000FFF706FF2D681748294600F049F86B6825
:101960002A68154C2046294600F042F8EB68AA6820
:1019700029460831204600F03BF86B692A6910358A
:101980002046294600F034F8384600F08BFAFEE78E
:101990003D3D3D204669727374205772697465201D
:1019A000616E642052656164203D3D3D0000000091
:1019B000080000207C1F0008A51F0008C71F0008A2
:1019C0000A3D3D3D204D6F64696679204461746134
:1019D00020616E642052657772697465203D3D3DDB
:1019E00000000000777700008888000099990000C7
:1019F0000FB410B503A9044B044A029800F018F87C
:101A000010BC08BC04B0184769180008000000208A
:101A100002E008C8121F08C1002AFAD170477047B7
:101A2000002001E001C1121F002AFBD17047000015
:101A3000FFB591B00F460546002606E025280AD0DE
:101A4000149A139990476D1C761C28780028F5D1BC
:101A5000304615B0F0BD002400940121F34A0294F1
:101A600000E004436D1C2B780846203B9840104250
:101A7000F7D128782A280ED0022128780246303A59
:101A8000092A15D8009A0A235A43303A80180C4381
:101A90006D1C0090F1E701CF0090002805DA0120CD
:101AA00040030443009840420090022004436D1C10
:101AB00028782E2815D10420044368786D1C2A2824
:101AC0000AD101CF6D1C02900BE002990A2251430A
:101AD000303940186D1C02902878014630390929A8
:101AE000F3D928786C2810D006DC4C281AD0682846
:101AF0000ED06A2817D104E0742813D07A2812D1A6
:101B000010E00120400504430CE00121090501E03B
:101B1000032109050C436978814203D101200005A6
:101B200024186D1C6D1C287803906E281ED00CDCC8
:101B3000632831D004DC00288AD0582811D1B2E0C3
:101B400064287BD069280CD178E073282DD004DC80
:101B50006F2870D0702804D1A7E075286CD0782841
:101B60006BD0149A13999047761C62E06002400F84
:101B7000022807D003280AD0042838680AD0066053
:101B80003F1D56E03868F11706604160F8E7386895
:101B90000680F5E70670F3E7387869460874002098
:101BA000487404A80390012003E0386803900020E3
:101BB000C0433F1D61070FD5002101E00199491C79
:101BC000029A0191914213DA8142F7DB019A03995B
:101BD000895C0029F2D10BE0002101E00199491C48
:101BE00001918142FADB019A0399895C0029F5D1C0
:101BF00001990098139A401A00902146149B00F016
:101C00003BF901998019461807E003980399007879
:101C1000491C0391149A139990470198401E019012
:101C2000401CF2D12146149B139A009800F014F93D
:101C300086196D1C09E741E033E034E00A200021F9
:101C4000049005916002410F022905D001CFC2170F
:101C50009446032905D007E0FF1DFF08FF0003CFCE
:101C600006E000B2C2179446042902D140B2C1175F
:101C70008C4600226146944506DA0A46002140421D
:101C800091418C462D2102E0210504D52B216A4685
:101C90001176012103E0E10701D02021F7E701914E
:101CA00054E00A200BE0102009E0102004900021ED
:101CB0000420044308200591029003E0082000213D
:101CC000059104906002410F022905D001CF002246
:101CD0009446032906D006E0FF1DFF08FF0003CF4E
:101CE0008C4603E080B2042900D1C0B200210191EA
:101CF00021072BD50399702906D0049A1021059B42
:101D00004A401A4305D00EE040216A46117601216F
:101D100008E06146014306D030216A4611760399F6
:101D2000517602210191049A0821059B4A401A43E9
:101D30000CD16146014301D1610707D530216A46C4
:101D40001176012101910299491E029103995829A6
:101D500004D037A103910FA90F910DE039A1F9E744
:101D60006146059B049AFEF7E2F9039B8C469B5C57
:101D70000F9A521E0F92137061460143F0D10F98D3
:101D800007A9081A20300390600704D50120000439
:101D90008443029801E0012002900399884201DD0A
:101DA000401A00E00020411802900198091800989C
:101DB000401A0090E00306D42146149B139A009821
:101DC00000F05AF886190020049008E006A9085C83
:101DD000149A139990470498401C761C049001991A
:101DE0008842F3DBE0030CD52146149B139A00983C
:101DF00000F042F8861904E0149A302013999047B5
:101E0000761C0299481E02900029F5DC08E00F9824
:101E10000F990078491C0F91149A13999047761CDA
:101E20000399481E03900029F1DCFBE60928010014
:101E30003031323334353637383961626364656640
:101E40000000000030313233343536373839414202
:101E50004344454600000000F8B5044600251E46F0
:101E60001746880404D405E039462020B0476D1C8D
:101E7000641EF9D52846F8BDFFB50446002581B09B
:101E80001E46C80301D5302700E02027880404D56A
:101E900005E038460399B0476D1C641EF9D5284605
:101EA00005B0F0BD10B5044601E0FFF7DDFC207879
:101EB000641C03490028F8D10A20FFF7D5FC10BDA7
:101EC00000000020000000000000000000000000F2
:101ED0000000000000000000000000000000000002
:101EE00000000000010000000200000003000000EC
:101EF00004000000060000000700000008000000C9
:101F000009000000000000000000000000000000C8
:101F100000000000010000000200000003000000BB
:101F200004000000010002000400060008000A008E
:101F30000C0010002000400080000001010101039E
:101F40000701000008040204080101014572726FD4
:101F5000723A20464C4153482070726F6772616D2F
:101F6000206661696C6564206174206164647265D7
:101F70007373203078253038582E0A00526561641A
:101F8000696E6720464C4153482064617461206645
:101F9000726F6D20616464726573732030782530D0
:101FA00038583A0A00416464726573733A20307895
:101FB000253038582C20446174613A20307825301F
:101FC00031366C6C580A00464C41534820726561AA
:101FD0006420636F6D706C657465642E00464C41BF
:101FE00053482070726F6772616D6D696E67206310
:101FF0006F6D706C6574656420737563636573736E
:1020000066756C6C792E0000282000080000002006
:1020100038000000101A0008602000083800002076
:10202000B0080000201A00080000000000000000B6
:102030000038000807000000444433332222111105
:102040008888777766665555CCCCBBBBAAAA999988
:102050000100000004000000001BB70000000000A9
:04000005080000C12E
:00000001FF
