:020000040800F2
:10000000A8080020D5000008090F0008590E0008B4
:1000100000000000000000000000000000000000E0
:100020000000000000000000000000000D0F0008AC
:1000300000000000000000000B0F00080F0F000878
:10004000E700000800000000E7000008E7000008E3
:10005000E7000008E7000008E7000008E7000008E4
:1000600000000000E7000008E7000008E7000008C3
:10007000E7000008E7000008E700000800000000B3
:10008000E70000080000000000000000E700000892
:1000900000000000E7000008E7000008E700000893
:1000A00000000000E700000800000000E700000872
:1000B000E700000800000000000000000000000051
:1000C0000348854600F034F8004800473114000822
:1000D000A80800200448804704480047FEE7FEE7E0
:1000E000FEE7FEE7FEE7FEE7190F0008C100000883
:1000F00070B50446002903D000202022012310E01F
:10010000002801D00020C043C046C0460DE025466F
:10011000D5408D4205D30D469540641B1D46954044
:1001200040191546521E002DF1DC214670BD00001D
:10013000064C0125064E05E0E36807CC2B430C3C3A
:1001400098471034B442F7D3FFF7BEFFCC15000830
:10015000EC15000872B6FEE7B0B5044600F0F6F8FC
:100160000546601C02D096480078041900F0EEF8AD
:10017000401BA042FAD3B0BDF0B58BB009916949DC
:100180000790884201D0062000E0052000900998E1
:100190000268002A00D1C3E0012000250A950895D5
:1001A0000290064613E0039805437D60049D09987C
:1001B00002681046069EF0402D1D0A9B9B1C0A9368
:1001C000089B08330893761C002800D1A8E0069607
:1001D000701E029C0590844022400392E7D0049553
:1001E0000998476810203843122813D11C20049A1C
:1001F00010400F231D468540059AD20892000799AA
:100200008A180999176AAF430D691D4085403D431F
:1002100015624F680322384610400A9B98400192AD
:100220009A4007990D68954305430D60D343122FFB
:10023000049D18D80120B8403D4A104211D0079EB5
:10024000B06818400999CA6819460A9B9A400B463B
:100250000243B2603809059A90407268A243024393
:100260007260032FA3D0079CE068184009998A6840
:100270000A9B9A400243E260F80098D51822089839
:1002800002400F209040059B019DAB43264FFD1877
:100290002B6E8343603505200007079981420AD001
:1002A00024480799814208D0234807998142009E3B
:1002B00004D1022602E0002600E0012696401E43FB
:1002C0002E601A4E356809984268D00312D50398FB
:1002D000054335607568900312D4039885437560B3
:1002E0003D68D00212D4039885433D607D6890023A
:1002F00013D558E703988543356075689003ECD5AE
:100300000398054375603D68D002ECD5039805431A
:100310003D607D68900200D545E70398854344E73A
:100320000BB0F0BD001400500018024080180240CD
:10033000060006000004005000080050002A02D009
:100340001822815070472822815070470548006864
:100350007047C0461A48007802490A6810180860B9
:100360007047C046A400002080B5032000F008F8C4
:10037000002801D0012080BD00F024F8002080BDBD
:1003800070B50F4E31780124002916D005467D2026
:10039000C000FFF7ADFE0146DE480068FFF7A8FE8B
:1003A00000F068FB032D08D8002806D10024E043A4
:1003B0002946224600F01CF87560204670BDC046F4
:1003C0000400002082B009484168012211434160C5
:1003D0004168114001910199110702680A430260C6
:1003E000006808400090009802B070473C1002403E
:1003F000002805D40322034693430C4A9A1806E0CA
:100400000F220240083A03239A43074BD218800771
:10041000C00E8901C9B28140FF2383401068984310
:10042000084310607047C0461CED00E000E400E0A7
:10043000F0B585B0044600784006474F01D400204F
:1004400037E0012001073A46203A029212680391F0
:100450000A40019208D1029B1968039A114319605E
:100460001968114004910499032100910A02396826
:1004700011400FD0A26991420AD0396800043A684D
:1004800002433A603A6882433A6034480140396036
:10049000C8074FD1386831490840A1690143396024
:1004A00000200199002904D1029B1968039A914305
:1004B00019602568E90709D1A90711D4A9061AD43A
:1004C000690723D429062CD405B0F0BD3946083974
:1004D0000A6803239A43A36813430B60A907EDD569
:1004E000032109033A46083A13688B43E16819432C
:1004F0001160A906E4D5032189073A46083A136832
:100500008B436169194311606907DBD503218903B6
:100510003A46083A13688B4321691943116029064A
:10052000D2D55C3F3A68E0218A4361681143396063
:1005300005B0F0BDFFF70AFF0646754D3868800725
:10054000A8D4FFF703FF801BA842F7D900980199B0
:100550000029A9D0ADE7C0465C100240FFFCFFFFB8
:10056000F0B583B00D46012100281BD00191029007
:100570006648006807242040A84216D263490868EC
:10058000A04328430860624EFFF7E0FE07465F483D
:1005900000682040A84208D0FFF7D8FEC01BB04238
:1005A000F5D90321084603B0F0BD029E30688107EB
:1005B000904B10D5410707D57B2109021A688A4361
:1005C0000B210902511819600F2109021A688A4388
:1005D000F16811431960C0071BD14C4800682040E6
:1005E000A84229D949490868A04328430860484FD0
:1005F000FFF7ACFE0646454800682040A8421BD0E5
:10060000FFF7A4FE801BB842F5D90321084603B0CA
:10061000F0BD1946083908681C229043029EB26852
:1006200002430A60706800282CD003282DD00128CE
:100630002DD1096889032CE0029A107840076D4B90
:1006400005D52003196881431069084318601846CE
:10065000083801681A689206520F06D01A683820C6
:100660000240082A07D1644837E000688004420F3E
:100670006248D04031E01A680240202A25D101208A
:10068000C0032AE00968490503E0996D00E0596D4F
:100690008907019986D51968A14301431960F44F70
:1006A000FFF754FE0646534800683821014002987F
:1006B0004068C000814290D0FFF748FE801BB842DE
:1006C000F1D90321084603B0F0BD1A680240182A88
:1006D00001D0002001E07D200002C906490F491C1D
:1006E000FFF706FD4349096889093C220A40294968
:1006F00089581F220A40D040DB490860DB48006867
:10070000FFF73EFE0146084603B0F0BD0020024060
:10071000881300000C00002010B5364C2046083825
:10072000016822689206520F06D0226838200240E3
:10073000082A07D1304814E000688004420FC948F5
:10074000D0400EE022680240202A02D10120C003DE
:1007500007E022680240182A01D0002001E07D2035
:100760000002C906490F491CFFF7C2FC216889092C
:100770003C220A40074989581F221140C840BA4903
:1007800008602168890A1C230B400349C95811409D
:10079000C84010BD441500088415000880B51548F0
:1007A0000246083A116803689B065B0F06D003688F
:1007B00038221340082B07D10F4814E0106880043A
:1007C000420FA848D0400EE003681340202B02D10E
:1007D0000120C00307E000681040182801D0002065
:1007E00001E07D200002C906490F491CFFF780FC8B
:1007F00080BDC0460810024000127A00006CDC0286
:10080000F0B581B00125002800D118E1044600951B
:100810000078C007924F07D0B8683821014060685F
:10082000082948D1002875D0207880071ED4207868
:1008300000070AD58A4B986838220240A169182A15
:100840006CD10029009D00D1F9E0207800254007F7
:1008500000D4F4E0824FB86838210140A068202914
:1008600070D1002800D0EAE00125E8E0E1687C4F83
:10087000B8688006400F2FD0386800296FD0072154
:10088000C9028843216901433960012001023A68A5
:100890000A433A608602FFF759FD05463868304240
:1008A00000D089E0FFF752FD401B0228F6D903254E
:1008B000284601B0F0BD012256041104884207D039
:1008C00005231B0498425ED190043A6802433A60C3
:1008D0003868084338605FE000291BD07F200002A1
:1008E0007968814360690002084378600720C0028C
:1008F0003968814320690843386038688004400FB4
:100900005849C1405848016058480068FFF738FD11
:1009100000288CD0009D284601B0F0BD186E00293B
:1009200053D0012108431866FFF710FD06464C48D6
:10093000006E800789D4FFF709FD801B032502287C
:10094000F5D97CE0012805D0052850D1F86D0421A7
:100950000143F965F86D01210143F96551E0012179
:100960000A02904338608F02FFF7F0FC06463C48CD
:100970000068384200D15AE7FFF7E8FC801B0325E6
:100980000228F4D95BE03B688B433B6091043A68F2
:100990008A433A60002844D0FFF7D8FC05463868FF
:1009A000304200D040E7FFF7D1FC401B6428F6D965
:1009B0000325284601B0F0BD7F20000279688143FD
:1009C000606900020843786031E7012188431866B6
:1009D000FFF7BCFC06462248006E800700D434E7CF
:1009E000FFF7B4FC801B03250228F4D927E0F96D3A
:1009F00001229143F965F96D04229143F9650028BC
:100A000020D01B4EFFF7A2FC0446F86D800716D4D9
:100A1000FFF79CFC001BB042F7D90325284601B024
:100A2000F0BDFFF793FC07460D480068304200D147
:100A3000FAE6FFF78BFCC01B03256428F4D928468F
:100A400001B0F0BD0A4EFFF781FC0446F86D800747
:100A5000F5D5FFF77BFC001BB042F7D9DDE7C046B8
:100A600000100240006CDC020C0000200800002096
:100A700088130000401E010E01D001207047074975
:100A8000074A5060074803680B400321890759183B
:100A9000016000209060072111607047FFFFFF0098
:100AA00010E000E020ED00E0B0B58421415C0129B8
:100AB00001D10220B0BD0246843224215160016878
:100AC0000B680C680125AC430C606C07A3430B60FA
:100AD000002141661170202050600846B0BD000022
:100AE000F0B581B08422825C012A02D1022001B0DB
:100AF000F0BD0546683524222A62066837683268E8
:100B00000124A243326007225206B36893430B4389
:100B1000B360406E0028204615D00097B768B068D3
:100B2000400F2B49095C2B4A105CC000FFF7E0FA2C
:100B300004463801009F400F2549095C254A105C96
:100B4000C000FFF7D5FA28806C8037600020287736
:100B50002021296201B0F0BDF0B581B08422825C11
:100B6000012A02D1022001B0F0BD054668352422D9
:100B70002A620668376832680124A243326007227D
:100B80005207B36893430B43B360406E002820467E
:100B900015D00097B768B068400F0D49095C0D4A41
:100BA000105CC000FFF7A4FA04463801009F400F14
:100BB0000749095C074A105CC000FFF799FA2880D2
:100BC0006C803760002028772021296201B0F0BDB9
:100BD000C4150008BC150008B0B5002830D0044684
:100BE000054684356868002804D100202870204616
:100BF00000F028F824206860206801680125A943D6
:100C00000160A06A002802D0204600F08DF920463D
:100C100000F058FA012811D00920C00221684A6862
:100C200082434A6088682A229043886008680122CB
:100C300002430A60204600F0E1F905462846B0BDAF
:100C40000120B0BDB0B58EB000240894079406947E
:100C50000594049403940068AA49884201D00EB018
:100C6000B0BD0125029502A8FFF7E2FB002801D0E4
:100C7000FFF770FAA8038949CA680243CA60CA68C4
:100C800002400992099808682843086008682840CB
:100C9000019004200D900C940B9402200A900320E4
:100CA000099005200007019909A9FFF765FA0EB020
:100CB000B0BDC046F0B585B00F4688214158202907
:100CC00012D10126002F0CD01446002A09D001268B
:100CD0003203816891420BD1F90709D001690029DB
:100CE00006D1304605B0F0BD0226304605B0F0BD55
:100CF00004930546543500210191E963212169637C
:100D000003901646FFF722FB039902906C802C801B
:100D10008868B04224D1086900283E46049A48D128
:100D2000002849D0688800281FD0501C494C48D062
:100D3000002A65D108680AE0318821408162B61C2A
:100D400000276988491E6980698800290ED0C16919
:100D5000090676D5002FEFD0397881627F1CF0E745
:100D6000049A019E68880028DFD10868C1690026BE
:100D7000490669D4002A64D0511C12D1C1694906C0
:100D800062D4C16949065FD4C16949065CD4C169AE
:100D90004906F3D558E0039800680168C069400629
:100DA00052D4FFF7D3FA0299401A04998842F2D933
:100DB00049E000260028B5D1074668880028B4D14C
:100DC000D3E708680AE0318821408162B61C002719
:100DD0006988491E698069880029C7D0C1690906E8
:100DE00008D4C169090605D4C169090602D4C169DC
:100DF0000906F3D5002FE6D0397881627F1CE7E73A
:100E00000868C16909060AD4FFF7A0FA049A029992
:100E1000401A904217D8039800680168F1E7002F44
:100E200003D0397881627F1C04E0318821408162DF
:100E3000B61C00276988491E698069880029E0D1AD
:100E400094E7FFF783FA032620206863304605B055
:100E5000F0BDC046FF010000FEE70000F0B587B01E
:100E6000002406940D480168012739430160006899
:100E70003840019001980520050770262846314624
:100E80002246FFF75BFA059404940397029602A9A1
:100E90002846FFF771F907B0F0BDC0463410024094
:100EA00010B5174800210C22DE4B016241628162BD
:100EB000E124640218C0016041608160C260016188
:100EC00041610838FFF788FE002801D0FFF742F99A
:100ED0000B480021FFF740FE002801D0FFF73AF948
:100EE00007480021FFF7FCFD002801D0FFF732F989
:100EF0000348FFF7D9FD002801D0FFF72BF910BDFB
:100F00001000002000380140FEE77047704780B5B0
:100F1000FFF720FA80BD00000120C00601490860EB
:100F20007047C04608ED00E0B0B5816A0A070CD4EE
:100F3000CA0714D18A071CD44A0724D4CA062CD461
:100F40008A0634D44A063CD44CE00122D20303681A
:100F50005C689443826B22435A60CA07EAD001223C
:100F6000520403685C689443C26A22435A608A0749
:100F7000E2D50122120403685C689443026B2243A9
:100F80005A604A07DAD50122920403685C689443E8
:100F9000426B22435A60CA06D2D50122120303686B
:100FA0009C689443C26B22439A608A06CAD5012288
:100FB000520303689C689443026C22439A604A0679
:100FC00010D501221305026854689C43456C2C43DC
:100FD00054609D4206D103235B0554689C43836C97
:100FE00023435360090607D50121C90402685368E9
:100FF0008B43C06C18435060B0BD0000F0B583B0A7
:10100000044690200026265027468437FFF79EF995
:1010100003462068016809071FD529480090012070
:1010200002904105002220461D4600F00FF90028DD
:1010300011D0EFF31080029981F3108821680A68BB
:1010400080239A430A6080F3108820207860032070
:101050003E7003B0F0BD20682B460068400725D5E0
:10106000174800900125A9050022204600F0EEF85F
:1010700000281BD0EFF3108085F310880921490167
:10108000226813688B43136080F31088EFF310809D
:1010900085F3108821688A68AA438A6080F31088E3
:1010A0002020B86003203E7003B0F0BD202078609F
:1010B000B860E666266730463E7003B0F0BDC046B5
:1010C000FFFFFF01F0B581B0044600680168524A95
:1010D0000A40A16823690B4365691D43E1690D431B
:1010E000154305600322120343689343E2681A43E1
:1010F0004260A269236A13438268484D15401D432C
:101100008560C26A0F239A43676A3A43C262444ABF
:10111000904209D0434A904208D14348406D80072D
:10112000000F42A2125802E0002200E010222646E0
:1011300068360125E803814211D1082A64D8C046E7
:101140007A44127952009744045F1C5F395F5F5FF5
:101150002400FFF7E1FA002834D0676A19E0082A72
:1011600052D8C0467A44127952009744044D2D4D0E
:10117000484D4D4D3500FFF7CFFA002843D0676A40
:101180002AE0294800680006400F411C2B48FEF762
:10119000AFFF79002A4A515AFEF7AAFF4000616862
:1011A0004A081018FEF7A4FF0246103A25498A4261
:1011B0002AD201400007400F08431CE0FFF7EEFA77
:1011C0000028CAD100251FE0174800680006400F1C
:1011D000411C1A48FEF78CFF7900194A515AFEF754
:1011E00087FF61684A081018FEF782FF0146103930
:1011F000144A914208D22168C860002504E0FFF734
:10120000CDFA0028BBD100250F4830600020606770
:10121000A067284601B0F0BDF369FFCFFFF4FF11CE
:10122000004400400038014000100240000000006F
:10123000040000000200000008000000006CDC0256
:10124000A4150008F0FF000001000100F0B585B012
:101250001F4615460E460368D9693140891B4A422C
:101260004A410021AA4222D10A9C002C22D003919B
:10127000611C24D1D9693140891B4A424A41AA42A2
:1012800031D1D9693140891B4A424A41AA422AD107
:10129000D9693140891B4A424A41AA4223D1D969BE
:1012A0003140891B4A424A41AA42E3D01BE008462A
:1012B00005B0F0BDFFF74AF8032005B0F0BD402EA1
:1012C000049001D0802E14D1FFF740F8C01BA0423B
:1012D0000CD8049800680168C0693040801B414206
:1012E0004141A942F0D0039805B0F0BD032005B0FC
:1012F000F0BD8430019001200090C002029006E011
:10130000C8693040801B41424141A942EBD1FFF7FF
:101310001DF8C11B0320A1423FD8049909680A683F
:101320005207EDD5CA69120739D4CA69029B1A421D
:10133000E6D0029A0A62EFF31082012181F310884D
:1013400009235B01049C246825689D43256082F382
:101350001088EFF3108281F31088049B1B689C684F
:101360002A4D25409D60049B82F31088DA6E012A85
:101370000BD1EFF3108281F3108819680B681024E9
:10138000A3430B60049B82F310882021019CA16081
:101390000022DA665A672270E16005B0F0BD0825C8
:1013A0000D62EFF31081009880F31088092252013A
:1013B000049B1B681C6894431C6081F31088EFF346
:1013C000108180F31088049A126893680F4C1C40B7
:1013D000049B946081F31088D96E01290CD1EFF33E
:1013E0001081012282F310881A6813681024A34325
:1013F0001360049B81F310882021019A91600021E1
:10140000D96659671170D56005B0F0BDFEFFFFEFDA
:1014100080B582B00190044801A90122034BFFF777
:1014200049FC019802B080BD10000020FFFF0000C1
:1014300090B0FEF799FF00240E940C940F940D9435
:101440000B940A940220099040200E900120000283
:101450000C9009A8FFF7D4F9002801D072B6FEE776
:1014600005940720049006940794089404A8012189
:10147000FFF776F8002801D072B6FEE7FFF7EEFC22
:10148000FFF70EFD7D20C000019005200507019F9C
:1014900010210391012628463246FEF74FFF2021F6
:1014A000029128463246FEF749FF4024284621464D
:1014B0003246FEF743FF0EA000F034F83846FEF740
:1014C0004BFE0026284603993246FEF737FF284692
:1014D00002993246FEF732FF284621463246FEF791
:1014E0002DFF05A000F01EF83846FEF735FECFE7C9
:1014F0004C4544204F4E21004C4544204F46462148
:101500000000000002E008C8121F08C1002AFAD13A
:1015100070477047002001E001C1121F002AFBD173
:101520007047000010B5044601E0FFF771FF207816
:10153000641C03490028F8D10A20FFF769FF10BD99
:10154000000000200000000000000000000000007B
:10155000000000000000000000000000000000008B
:101560000000000001000000020000000300000075
:101570000400000006000000070000000800000052
:101580000900000000000000000000000000000052
:101590000000000001000000020000000300000045
:1015A00004000000010002000400060008000A0018
:1015B0000C00100020004000800000010101010328
:1015C000070100000804020408010101F0150008E9
:1015D000000000201000000004150008001600089C
:1015E00010000020980800001415000800000000FA
:1015F000000000000100000004000000001BB70014
:04000005080000C12E
:00000001FF
